:100000000C9434000C9451000C9451000C94510049
:100010000C9451000C9451000C9451000C9451001C
:100020000C9451000C9451000C9451000C9451000C
:100030000C9451000C9423020C9451000C94510028
:100040000C9451000C9451000C9451000C945100EC
:100050000C9451000C9451000C9451000C945100DC
:100060000C9451000C94510011241FBECFEFD8E026
:10007000DEBFCDBF13E0A0E0B1E0E2E0F7E102C0F7
:1000800005900D92A435B107D9F723E0A4E5B3E0BC
:1000900001C01D92AB36B207E1F70E9482060C94B4
:1000A0007F0B0C94000060E880E090E00E946B02FF
:1000B00065E58BE190E00E946B0265E58AE190E0E6
:1000C0000C946B020F931F93CF93DF930EE011E01C
:1000D000C0E0D0E0F80161918F012196CE010E942D
:1000E0006B02C430D105B1F7DF91CF911F910F9111
:1000F00008950F931F93CF93DF930AE011E0C5E0BB
:10010000D0E0F80161918F01CE010E946B0221962F
:10011000C930D105B1F7DF91CF911F910F910895AB
:100120000F931F93CF93DF9304E011E0C9E0D0E079
:10013000F80161918F01CE010E946B022196CF30B0
:10014000D105B1F7DF91CF911F910F9108950F93D2
:100150001F93CF93DF9300E011E0CFE0D0E0F801F0
:1001600061918F01CE010E946B022196C331D105AE
:10017000B1F7DF91CF911F910F910895FF920F93E7
:100180001F93CF93DF9384E090E00E947F02182FAB
:1001900083E090E00E947F02D82F82E090E00E94EE
:1001A0007F02C82F81E090E00E947F021F921F9380
:1001B0001F92DF931F92CF931F928F938FE591E051
:1001C0009F938F930E948F088EE090E00E947F02A1
:1001D000F82E8DE090E00E947F02082F8CE090E0E6
:1001E0000E947F02182F8BE090E00E947F02D82FA0
:1001F0008AE090E00E947F02C82F89E090E00E9490
:100200007F021F92FF921F920F931F921F931F92C4
:10021000DF931F92CF931F928F938CE791E09F9370
:100220008F930E948F0888E090E00E947F02182F31
:1002300087E090E00E947F02D82F86E090E00E9445
:100240007F02C82F85E090E00E947F021F921F93DB
:100250001F92DF931F92CF931F928F9383EB91E0B6
:100260009F938F930E948F088DB79EB782960FB68B
:10027000F8949EBF0FBE8DBF82E190E00E947F0286
:10028000182F81E190E00E947F02D82F80E190E05A
:100290000E947F02C82F8FE090E00E947F021F9291
:1002A0001F931F92DF931F92CF931F928F938EEC19
:1002B00091E09F938F930E948F088DB79EB70A9607
:1002C0000FB6F8949EBF0FBE8DBFDF91CF911F91E7
:1002D0000F91FF9008955A985B9A8BB18F708BB9EC
:1002E0009BB1809160038295807F892B8BB95B984D
:1002F00008955A985B9A9BB19F709BB95B985B9AE3
:100300009BB19F709BB92BB130E1839FC001112439
:10031000282B2BB95B9808958FE59AEE0197F1F79A
:1003200000C000008AB18C6F8AB981E280935D03BE
:1003300086E480935E038CE880935F03E0E6F3E05D
:100340008081807F826080830E946B0187EC90E0D7
:100350000197F1F700C0000080915F038F700E9449
:10036000790187EC90E00197F1F700C000008091DF
:100370005D038F700E9479018FE39FE10197F1F790
:1003800000C0000008955A9A5B9A9BB19F709BB978
:100390002BB1982F907F922B9BB95B985B9A9BB166
:1003A0009F709BB92BB130E1839FC0011124282B92
:1003B0002BB95B980895E82FF0E0EF54FF4F808150
:1003C0000E94C30180915E038F700C947901EF92BB
:1003D000FF921F93CF93DF931F92CDB7DEB7182FF5
:1003E00080915D038F7099830E947901AFE3BFE133
:1003F0001197F1F700C00000E12E9981F92EF70165
:100400008081882369F08FE891E00197F1F700C0BF
:1004100000009FEFE91AF90A80810E94DB01EFCF0B
:100420000F90DF91CF911F91FF90EF900895E82FEB
:10043000F0E0E450FF4F80810E94C30180915E0391
:100440008F700C9479011F920F920FB60F921124A6
:100450002F933F934F935F936F937F938F939F93CC
:10046000AF93BF93EF93FF930E943504892BA1F0C4
:1004700080913601882381F084EE92E00E94A308E7
:100480008AEE92E00E94E70163E070E086E00E945D
:10049000BF04299A289A09C080EF92E00E94A3081D
:1004A00063E070E085E00E94BF04FF91EF91BF918F
:1004B000AF919F918F917F916F915F914F913F91FC
:1004C0002F910F900FBE0F901F9018958CE284B95A
:1004D00080E58CBD08952A9820EF2EBD0DB407FE4F
:1004E000FDCF9EBD0DB407FEFDCF8EBD0DB407FE42
:1004F000FDCF6EBD0DB407FEFDCF2A9A08952A9850
:100500002FE02EBD0DB407FEFDCF9EBD0DB407FE3E
:10051000FDCF8EBD0DB407FEFDCF1EBC0DB407FE92
:10052000FDCF2A9A8EB5089561E080E095E00E94A3
:100530006B0265E784E095E00E946B0260E385E072
:1005400095E00E946B0261E081E095E00E946B0201
:1005500083E095E00E947F02833131F060E181E029
:1005600095E00E946B02E0CF089568E081E095E09D
:100570000C946B0260E181E095E00C946B021092A8
:100580005A031092590362E081E095E00E946B02E9
:1005900083E095E00E947F02843131F060E181E0E8
:1005A00095E00E946B02EBCF0895AF92BF92CF927D
:1005B000DF92EF92FF920F931F93CF93DF93D82E8A
:1005C0007B018A012091590330915A032F5F3F4FDD
:1005D00030935A032093590380E295E00E947F02F2
:1005E000C82FD0E0DC2FCC2781E295E00E947F026B
:1005F000EFE9FFE03197F1F700C00000C82BC0170A
:10060000D10750F36AE08CE095E00E946B0260E055
:100610008DE095E00E946B0264E08EE095E00E9420
:100620006B0260E08FE095E00E946B0265E780E17D
:1006300095E00E946B0260E381E195E00E946B020D
:1006400084E295E00E947F02C82FD0E0DC2FCC2707
:1006500085E295E00E947F02C82BCE0197706D2D38
:10066000985B0E946B0260915A03CE0101969770CD
:10067000985B0E946B02CE010296977060915903BD
:10068000985B0E946B026E01F3E0CF0ED11CE70174
:10069000C6019E012E193F09201731075CF45C0149
:1006A0002FEFA21AB20A69919770985B0E946B02B1
:1006B000C501EFCF17FF02C000E010E00C0D1D1DBB
:1006C000612F84E295E00E946B02602F85E295E045
:1006D0000E946B0260E281E095E00E946B0281E083
:1006E00095E00E947F028111FACFDF91CF911F9197
:1006F0000F91FF90EF90DF90CF90BF90AF90089553
:10070000AF92BF92CF92DF92EF92FF920F931F931F
:10071000CF93DF93EC0186E295E00E947F02082FE1
:1007200010E0102F002787E295E00E947F02082B3F
:1007300088E295E00E947F02E82EF12CFE2CEE2448
:1007400089E295E00E947F02E82A97013770200F26
:10075000311F213D374070F56801CC0EDD1E570179
:10076000AC1ABD0AC5018C0F9D1FCC15DD0531F0FB
:10077000977098590E947F028993F4CF0E0D1F1D28
:100780001882612F88E295E00E946B02602F89E257
:1007900095E00E946B0260E481E095E0DF91CF91EB
:1007A0001F910F91FF90EF90DF90CF90BF90AF908F
:1007B0000C946B02DF91CF911F910F91FF90EF90FE
:1007C000DF90CF90BF90AF90089580937C00809190
:1007D0007C00806480937C0080917C008F7D80937E
:1007E0007C0080917A00876080937A0080917A0003
:1007F000806880937A0080917A00806480937A0088
:1008000080917A0086FDFCCF20917800809179005C
:1008100090E0982F8827820F911D089580E00E9414
:10082000E503909362038093610381E00E94E503F6
:100830009093640380936303089520916303309140
:1008400064034091610350916203841B950BC3972D
:100850002CF4621B730B6333710534F081E090E07C
:1008600090935C0380935B030895CF93DF9380E0C4
:100870000E94E503EC0181E00E94E503BC01CE018A
:100880000E941D0480915B0390915C03DF91CF91E6
:10089000089510925C0310925B0380E00E94E503D0
:1008A000909362038093610381E00E94E50390933B
:1008B00064038093630308959C0140E050E060E48A
:1008C00072E48FE090E00E94590821503109309382
:1008D000C5002093C40088E18093C10086E0809326
:1008E000C2000895CF93C82F8A3019F48DE00E947A
:1008F00072048091C00085FFFCCFC093C60080E0E9
:1009000090E0CF910895CF93BC018091C00087FF04
:10091000FCCFC091C6008C2F0E9472048C2FCF9107
:1009200008958091C00087FF03C08091C600F9CF71
:10093000089562E080E094E00E946B0265E784E045
:1009400094E00E946B0260E385E094E00E946B02F9
:1009500061E081E094E00E946B0283E094E00E94F9
:100960007F02823231F060E181E094E00E946B020C
:10097000E0CF089560E181E094E00C946B02CF92A7
:10098000DF92EF92FF920F931F93CF93DF93CDB738
:10099000DEB728970FB6F894DEBF0FBECDBFD82EB6
:1009A0008B0180E294E00E947F02E82EF12CFE2C65
:1009B000EE2481E294E00E947F02EFE9FFE03197AC
:1009C000F1F700C00000E82AE016F10650F36FEFDF
:1009D0008CE094E00E946B026FEF8DE094E00E9447
:1009E0006B026FEF8EE094E00E946B026FEF8FE07E
:1009F00094E00E946B0265E780E194E00E946B0244
:100A000060E381E194E00E946B0284E294E00E9442
:100A10007F02082F10E0102F002785E294E00E944B
:100A20007F02082BC80197706D2D905C0E946B02AD
:100A300088E0E7E5F1E0DE01119601900D928A95DC
:100A4000E1F7CE0101966C01EE24E394F12CF6015E
:100A50006081F2E0CF0ED11CC701800F911F97700B
:100A6000905C0E946B028FEFE81AF80A95E0E91695
:100A7000F10469F70B5F1F4F612F84E294E00E943D
:100A80006B02602F85E294E00E946B0260E281E0DD
:100A900094E00E946B0281E094E00E947F02811149
:100AA000FACF28960FB6F894DEBF0FBECDBFDF9108
:100AB000CF911F910F91FF90EF90DF90CF9008950D
:100AC0008F929F92AF92BF92CF92DF92EF92FF925E
:100AD0000F931F93CF93DF9300D000D0CDB7DEB735
:100AE000F82E5B016A0180E294E00E947F02082FE9
:100AF00010E0102F002781E294E00E947F02EFE9CE
:100B0000FFE03197F1F700C00000082B0C151D0520
:100B100050F360EC8CE094E00E946B0268EA8DE098
:100B200094E00E946B0262EB8EE094E00E946B0204
:100B30006CE08FE094E00E946B0265E780E194E056
:100B40000E946B0260E381E194E00E946B0284E208
:100B500094E00E947F02082F10E0102F002785E20A
:100B600094E00E947F02082BC80197706F2D905C63
:100B70000E946B0281E3898390E39A8394E39B83D1
:100B80008C83CE0101964C01EE24E394F12CF40108
:100B900061914F01C701800F911F9770905C0E9477
:100BA0006B02FFEFEF1AFF0A25E0E216F10479F776
:100BB0000B5F1F4F7501C80197012A193B092C15BE
:100BC0003D056CF44C01EFEF8E1A9E0AF70161911E
:100BD0007F019770905C0E946B02C401EDCFD7FE3D
:100BE00002C0C12CD12CC00ED11E6D2D84E294E028
:100BF0000E946B026C2D85E294E00E946B0260E221
:100C000081E094E00E946B0281E094E00E947F0208
:100C10008111FACF0F900F900F900F90DF91CF912D
:100C20001F910F91FF90EF90DF90CF90BF90AF900A
:100C30009F908F9008958F929F92AF92BF92CF9284
:100C4000DF92EF92FF920F931F93CF93DF937C017C
:100C500086E294E00E947F02C82FD0E0DC2FCC27F0
:100C600087E294E00E947F02C82B8E010850110990
:100C700088E294E00E947F02C82ED12CDC2CCC2488
:100C800089E294E00E947F029601282BC9015C0151
:100C900038E0A30EB11C6701C80FD91F95012C17AE
:100CA0003D0771F049018FEF881A980AC9019770C2
:100CB000905A0E947F02F60181936F019401EFCF59
:100CC000E801CA0DDB1DF701E00FF11F10826D2F47
:100CD00088E294E00E946B026C2F89E294E00E940B
:100CE0006B0260E481E094E0DF91CF911F910F915E
:100CF000FF90EF90DF90CF90BF90AF909F908F903C
:100D00000C946B02CF93DF93CDB7DEB7C150D240C6
:100D10000FB6F894DEBF0FBECDBFF89480E895E221
:100D20000E945C0489E491E09093660380936503DC
:100D300090936803809367030E940E040E946602EA
:100D40000E948C010E9453000E9462000E94790060
:100D50000E9490000E94A7000E94BE0068E070E020
:100D600083E00E94BF04219A209A80916F008160E5
:100D700080936F00809181008560809381007894DA
:100D800080913601882371F089EE91E00E94E7019D
:100D90008E010F5F1F4F48E6E42E42E0F42EDD2463
:100DA000D39427C086EE91E0F1CF8FEE91E0CF5F34
:100DB000DD4F2883C150D2400E94A3080E949904AD
:100DC000CF5FDD4F2881C150D2402431E9F188F551
:100DD000211128C086E192E00E94A3080E9494029B
:100DE000EFEFF3ED20E3E150F0402040E1F700C0E9
:100DF000000083E094E00E947F02C82E83E095E02B
:100E00000E947F02282FCC2081F232E2C312DDCF74
:100E100083E092E0CF5FDD4F2883C150D2400E9433
:100E2000A308CECF2331E1F68AE292E00E94A30824
:100E300029C1273171F02C3199F688EC92E00E949B
:100E4000A308109254031EC18DE392E00E94A308F0
:100E5000C7CF81E592E00E94A30886E295E00E9458
:100E60007F02882309F1C8010E9480031F930F931A
:100E7000FF92EF920E948F080F900F900F900F90AB
:100E80008981833009F4A5C030F48130A1F082302B
:100E900009F45FC0A5CF853009F4C8C008F4B0C01C
:100EA000863009F4D7C09CCF87E295E00E947F028C
:100EB0008111D9CF95CF80915703909158036AE063
:100EC00070E00E944508880F991F895C9E4FFC01C5
:100ED000208131818091550390915603D901A80F4B
:100EE000B91FE4E0F0E0EC0FFD1FE80FF91F5C9183
:100EF0004081541306C00196909356038093550386
:100F0000E9CF099781F4D092540381E892E00E94DE
:100F1000A30880915703909158030196909358032A
:100F2000809357035DCF84E992E00E94A30886E096
:100F300090E025B12D2525B9FFEF29E638E1F150E4
:100F400020403040E1F700C000000197009789F78A
:100F500047CF80915403882309F442CF89EA92E075
:100F60000E94E7018C814D8150E060E070E0BA01A1
:100F700055274427782B8F81482B8E8190E0982F1E
:100F80008827AA2797FDA095BA2F482B592B6A2BA3
:100F90007B2B289A80E090E0DC0184179507A60758
:100FA000B70751F0EFE9FFE03197F1F700C000001B
:100FB0000196A11DB11DF1CF28988091360188239B
:100FC00019F089EE91E002C086EE91E00E94E701FF
:100FD00007CF80915403882309F402CF84EB92E079
:100FE0000E94E7018C81882311F0299A01C0299879
:100FF000FFEF23ED30E3F15020403040E1F73FC0F8
:1010000080915403882309F4EBCE8C81882339F036
:1010100089EE91E00E94E701D0923601E1CE86EEA2
:1010200091E00E94E70110923601DACE80915403DC
:10103000882309F4D5CE8DEB92E00E94E7016AE0A7
:1010400070E084E00E94BF0480916000886080931B
:101050006000C6CE80915403882309F4C1CE83EC8E
:1010600092E00E94E70163E070E081E00E94BF042B
:101070004FEF83ED90E3415080409040E1F700C096
:1010800000009BCF0E94BF02ABCE97FB072E16F449
:10109000009407D077FD09D00E947B0807FC05D09B
:1010A0003EF4909581959F4F0895709561957F4F7F
:1010B0000895A1E21A2EAA1BBB1BFD010DC0AA1F99
:1010C000BB1FEE1FFF1FA217B307E407F50720F0B1
:1010D000A21BB30BE40BF50B661F771F881F991F2C
:1010E0001A9469F760957095809590959B01AC0175
:1010F000BD01CF010895AA1BBB1B51E107C0AA1F68
:10110000BB1FA617B70710F0A61BB70B881F991FA8
:101110005A95A9F780959095BC01CD010895A0E05E
:10112000B0E0E5E9F8E00C94580BFE0135966191CA
:101130007191AF0180916703909168030E94D0087C
:10114000E2E00C94740B0F931F93CF93DF93E09125
:101150006703F0916803238121FF1BC0EC0100E0CD
:1011600010E089916091670370916803DB01189624
:10117000ED91FC911997882331F00995892B89F31A
:101180000FEF1FEFEECF8AE00995892B11F4C8010C
:1011900002C08FEF9FEFDF91CF911F910F910895C4
:1011A000ACE0B0E0E6EDF8E00C94480B7C016B019C
:1011B0008A01FC0117821682838181FFBDC1CE01A5
:1011C00001964C01F7019381F60193FD859193FF00
:1011D00081916F01882309F4ABC1853239F493FD05
:1011E000859193FF81916F01853229F4B70190E0D9
:1011F0000E94B80AE7CF512C312C20E02032A0F415
:101200008B3269F030F4803259F0833269F4206116
:101210002CC08D3239F0803339F4216026C0226031
:10122000246023C0286021C027FD27C030ED380F7F
:101230003A3078F426FF06C0FAE05F9E300D1124A4
:10124000532E13C08AE0389E300D1124332E2062B5
:101250000CC08E3221F426FD6BC1206406C08C3692
:1012600011F4206802C0883641F4F60193FD85919F
:1012700093FF81916F018111C1CF982F9F7D95546C
:10128000933028F40C5F1F4FFFE3F9830DC08336C2
:1012900031F0833771F0833509F05BC022C0F8016B
:1012A000808189830E5F1F4F44244394512C540145
:1012B00015C03801F2E06F0E711CF801A080B180FA
:1012C00026FF03C0652D70E002C06FEF7FEFC50100
:1012D0002C870E94AD0A2C0183012C852F77222EAA
:1012E00017C03801F2E06F0E711CF801A080B180C8
:1012F00026FF03C0652D70E002C06FEF7FEFC501D0
:101300002C870E94A20A2C012C852068222E8301A2
:1013100023FC1BC0832D90E048165906B0F4B7019A
:1013200080E290E00E94B80A3A94F4CFF50127FCDD
:10133000859127FE81915F01B70190E00E94B80A74
:1013400031103A94F1E04F1A51084114510471F7E9
:10135000E5C0843611F0893639F5F80127FF07C05A
:1013600060817181828193810C5F1F4F08C0608111
:101370007181882777FD8095982F0E5F1F4F2F76FC
:10138000B22E97FF09C090958095709561957F4F1B
:101390008F4F9F4F2068B22E2AE030E0A4010E94B8
:1013A000EA0AA82EA81844C0853729F42F7EB22E49
:1013B0002AE030E025C0F22FF97FBF2E8F36C1F032
:1013C00018F4883579F0B4C0803719F0883721F0E7
:1013D000AFC02F2F2061B22EB4FE0DC08B2D8460C4
:1013E000B82E09C024FF0AC09F2F9660B92E06C0F0
:1013F00028E030E005C020E130E002C020E132E02A
:10140000F801B7FE07C060817181828193810C5F12
:101410001F4F06C06081718180E090E00E5F1F4F1A
:10142000A4010E94EA0AA82EA818FB2DFF77BF2E60
:10143000B6FE0BC02B2D2E7FA51450F4B4FE0AC0AF
:10144000B2FC08C02B2D2E7E05C07A2C2B2D03C09C
:101450007A2C01C0752C24FF0DC0FE01EA0DF11D90
:101460008081803311F4297E09C022FF06C0739465
:10147000739404C0822F867809F0739423FD13C0FF
:1014800020FF06C05A2C731418F4530C5718732CF1
:10149000731468F4B70180E290E02C870E94B80AC8
:1014A00073942C85F5CF731410F4371801C0312CC8
:1014B00024FF12C0B70180E390E02C870E94B80A95
:1014C0002C8522FF17C021FF03C088E590E002C0F1
:1014D00088E790E0B7010CC0822F867859F021FD93
:1014E00002C080E201C08BE227FD8DE2B70190E0EF
:1014F0000E94B80AA51438F4B70180E390E00E9476
:10150000B80A5A94F7CFAA94F401EA0DF11D80812C
:10151000B70190E00E94B80AA110F5CF332009F47A
:1015200051CEB70180E290E00E94B80A3A94F6CF1B
:10153000F7018681978102C08FEF9FEF2C96E2E141
:101540000C94640BFC010590615070400110D8F7B9
:10155000809590958E0F9F1F0895FC0161507040FB
:1015600001900110D8F7809590958E0F9F1F0895D8
:101570000F931F93CF93DF93182F092FEB018B81CC
:1015800081FD03C08FEF9FEF20C082FF10C04E810E
:101590005F812C813D81421753077CF4E881F981FA
:1015A0009F012F5F3F4F39832883108306C0E88552
:1015B000F985812F0995892B29F72E813F812F5F8E
:1015C0003F4F3F832E83812F902FDF91CF911F912B
:1015D0000F910895FA01AA27283051F1203181F1A5
:1015E000E8946F936E7F6E5F7F4F8F4F9F4FAF4F2B
:1015F000B1E03ED0B4E03CD0670F781F891F9A1F3E
:10160000A11D680F791F8A1F911DA11D6A0F711DF1
:10161000811D911DA11D20D009F468943F912AE0FD
:10162000269F11243019305D3193DEF6CF010895E5
:10163000462F4770405D4193B3E00FD0C9F7F6CF16
:10164000462F4F70405D4A3318F0495D31FD4052DE
:10165000419302D0A9F7EACFB4E0A6959795879574
:1016600077956795BA95C9F7009761057105089553
:101670009B01AC010A2E06945795479537952795FF
:10168000BA95C9F7620F731F841F951FA01D089597
:101690002F923F924F925F926F927F928F929F9282
:1016A000AF92BF92CF92DF92EF92FF920F931F9370
:1016B000CF93DF93CDB7DEB7CA1BDB0B0FB6F89421
:1016C000DEBF0FBECDBF09942A88398848885F8461
:1016D0006E847D848C849B84AA84B984C884DF80D2
:1016E000EE80FD800C811B81AA81B981CE0FD11DB6
:1016F0000FB6F894DEBF0FBECDBFED010895F8948C
:02170000FFCF19
:101702000A000401001636DE58F6FFFF00000A0048
:1017120000016162636465666768696A6B6C6D6E1D
:101722006F707172737475767778797A303132337B
:1017320034353637383901FA0203030C0315031E18
:10174200032F03380341034A030000000300000093
:10175200007204830400000A000000040001004734
:101762006174657761792061647265733A202564DA
:101772002E25642E25642E25640A0A00536F757285
:101782006365206861726477617265206164726565
:10179200733A20252E32783A252E32783A252E3287
:1017A200783A252E32783A252E32783A252E32781A
:1017B2000A0A005375626E6574206D61736B3A207C
:1017C20025642E25642E25642E25640A0A0049709C
:1017D2002D61647265733A2025642E25642E25647A
:1017E2002E25640A0A0064697361726D656400558E
:1017F200445020736F636B6574206765736C6F74FC
:10180200656E0055445020736F636B657420676585
:101812006F70656E640054435020736F636B657420
:10182200206765736C6F74656E0054435020736F4C
:10183200636B65742067656F70656E640054435016
:10184200536572766572206C756973746572656E24
:10185200005443502076657262696E64696E672037
:101862006F7067657A6574000A544350206461742E
:1018720061206F6E7476616E67656E3A2025730A19
:10188200004765627275696B657220696E67656C87
:101892006F676400496E636F72726563742077616B
:1018A200636874776F6F72640062757A7A657274B6
:1018B200657374006C616D70746573740072657326
:1018C20065740070696E670054435020636C6F73D7
:1018D200652072657175657374206F6E7476616EC2
:1018E20067656E00414C41524D00616C61726D0042
:1018F20042524F41444341535400364963315F38A9
:10190200393400686B6A304B266C3500374D7C49A0
:101912002370393600383251303138216800583955
:101922003621244D3335394B313626703532003E5F
:101932002D247D75383551003933433231334831E6
:101942000037363921634B304F003148333535513A
:04195200397D0000DB
:00000001FF
