:100000000C9434000C9451000C9451000C94510049
:100010000C9451000C9451000C9451000C9451001C
:100020000C9451000C9451000C9451000C9451000C
:100030000C9451000C943F030C9451000C9451000B
:100040000C9451000C9451000C9451000C945100EC
:100050000C9451000C9451000C9451000C945100DC
:100060000C9451000C94510011241FBECFEFD8E026
:10007000DEBFCDBF13E0A0E0B1E0ECECF1E102C0E7
:1000800005900D92AC31B107D9F723E0ACE1B3E0B4
:1000900001C01D92AF32B207E1F70E946C010C94CF
:1000A000E4080C94000060E880E090E00E94830384
:1000B00065E58BE190E00E94830365E58AE190E0CD
:1000C0000E94830308950F931F93CF93DF930EE055
:1000D00011E0C0E0D0E0F80161918F012196CE01DE
:1000E0000E948303C430D105B1F7DF91CF911F91F6
:1000F0000F9108950F931F93CF93DF930AE011E0C0
:10010000C5E0D0E0F80161918F01CE010E94830328
:100110002196C930D105B1F7DF91CF911F910F9191
:1001200008950F931F93CF93DF9304E011E0C9E08C
:10013000D0E0F80161918F01CE010E9483032196E6
:10014000CF30D105B1F7DF91CF911F910F91089575
:100150000F931F93CF93DF9300E011E0CFE0D0E047
:10016000F80161918F01CE010E9483032196C33172
:10017000D105B1F7DF91CF911F910F910895FF92B3
:100180000F931F93CF93DF9384E090E00E94970337
:10019000182F83E090E00E949703D82F82E090E030
:1001A0000E949703C82F81E090E00E9497031F925E
:1001B0001F931F92DF931F92CF931F928F938BE316
:1001C00091E09F938F930E94F4058EE090E00E944F
:1001D0009703F82E8DE090E00E949703082F8CE0A3
:1001E00090E00E949703182F8BE090E00E94970305
:1001F000D82F8AE090E00E949703C82F89E090E012
:100200000E9497031F92FF921F920F931F921F93BA
:100210001F92DF931F92CF931F928F9388E591E0F7
:100220009F938F930E94F40588E090E00E949703CB
:10023000182F87E090E00E949703D82F86E090E087
:100240000E949703C82F85E090E00E9497031F92B9
:100250001F931F92DF931F92CF931F928F938FE86C
:1002600091E09F938F930E94F4058DB79EB782967D
:100270000FB6F8949EBF0FBE8DBF82E190E00E9442
:100280009703182F81E190E00E949703D82F80E117
:1002900090E00E949703C82F8FE090E00E949703A0
:1002A0001F921F931F92DF931F92CF931F928F93E2
:1002B0008AEA91E09F938F930E94F4058DB79EB7D1
:1002C0000A960FB6F8949EBF0FBE8DBFDF91CF91F7
:1002D0001F910F91FF900895CF93DF93CDB7DEB7B5
:1002E000C250D2400FB6F894DEBF0FBECDBFF89417
:1002F00080E895E20E94AA0485E291E090932A03A7
:100300008093290390932C0380932B030E946F0406
:100310000E947E030E9453000E9463000E947A00A4
:100320000E9491000E94A8000E94BF0068E070E057
:1003300083E00E940305219A209AEFE6F0E0808195
:1003400081608083E1E8F0E080818560808378943B
:10035000CE010196CF5FDD4F99838883C150D24093
:100360000F2EFBE3EF2EF2E0FF2EF02D0F2EFCE719
:100370008F2EF2E09F2EF02D0F2EF0E9AF2EF2E03F
:10038000BF2EF02D0F2EF0E66F2E712CF02D0F2EBC
:10039000F7E84F2EF2E05F2EF02D33243394212C1A
:1003A00083E094E00E949703082F83E095E00E9489
:1003B0009703182F002319F0023241F00BC082EC92
:1003C00091E00E9408060E94E10404C086ED91E0DD
:1003D0000E9408061431D1F028F4112349F013319A
:1003E00071F043C11731B9F01C3109F436C13DC178
:1003F00089EE91E00E9408060E94AC0336C18DEFA1
:1004000091E00E9408060E94CE032FC180E192E095
:100410000E9408062AC184E292E00E94080686E251
:1004200095E00E949703811107C087E295E00E9442
:100430009703882309F419C1CE0101960E94E503B0
:10044000CE5FDD4F9881C250D2409F93CF5FDD4F8A
:10045000A881C150D240AF93FF92EF920E94F40561
:100460000F900F900F900F908981833009F4AAC0EC
:1004700030F4813069F0823009F46EC0F6C0853006
:1004800009F4CDC008F4B0C0863009F4DCC0EDC07A
:1004900080911F03909120036AE070E00E94AA05FA
:1004A000FC01EE0FFF1FED5EFE4F20813181809138
:1004B0001D0390911E03D901A80FB91FE4E0F0E0DD
:1004C000EC0FFD1FE80FF91F5C914081541316C01B
:1004D000FC013196E20FF31F0496A1E0B0E0AC0FEF
:1004E000BD1FA80FB91FCF01821B930B90931E0352
:1004F00080931D0351914D915417A9F3099781F4ED
:1005000030921C0384E592E00E94080680911F034C
:100510009091200301969093200380931F03A5C020
:100520000F2EF3E0CF2ED12CF02D87E692E00E9423
:10053000080685B1832585B9BFE9E6E8F1E0B15049
:10054000E040F040E1F700C0000021E0C21AD1080D
:10055000C114D10451F789C080911C03882309F488
:1005600084C08C814D8150E060E070E0BA01552775
:100570004427782B8F81482B8E8190E0982F8827F5
:10058000AA2797FDA095BA2F482B592B6A2B7B2BB6
:10059000289A411551056105710591F0822D90E071
:1005A000A0E0B0E0E9EFF0E03197F1F700C0000023
:1005B0000196A11DB11D84179507A607B70791F7EE
:1005C000289853C080911C03882309F44EC09F9241
:1005D0008F920E94F4050F900F908C81882311F068
:1005E000299A43C0299841C080911C038823E9F1CE
:1005F0008C81882359F0A1E8B2E0BF93AF930E94A9
:10060000F405309212010F900F902FC05F924F921D
:100610000E94F405109212010F900F9026C0809155
:100620001C03882311F1BF92AF920E94F4056AE087
:1006300070E084E00E940305D3018C9188608C9364
:100640000F900F9012C080911C03882371F063E01B
:1006500070E0832D0E94030508C086E992E00E94A5
:10066000080610921C030E94CE03BFE3EDE0F3E006
:10067000B150E040F040E1F700C0000091CE1F9281
:100680000F920FB60F9211242F933F934F935F93C6
:100690006F937F938F939F93AF93BF93EF93FF934A
:1006A0000E949604892B81F080911201882361F0C9
:1006B00082EB92E00E94080663E070E086E00E9410
:1006C0000305299A289A09C088EB92E00E9408063F
:1006D00063E070E085E00E940305FF91EF91BF9118
:1006E000AF919F918F917F916F915F914F913F91CA
:1006F0002F910F900FBE0F901F9018958CE284B928
:1007000080E58CBD08952A9820EF2EBD0DB407FE1C
:10071000FDCF9EBD0DB407FEFDCF8EBD0DB407FE0F
:10072000FDCF6EBD0DB407FEFDCF2A9A08952A981D
:100730002FE02EBD0DB407FEFDCF9EBD0DB407FE0C
:10074000FDCF8EBD0DB407FEFDCF1EBC0DB407FE60
:10075000FDCF2A9A8EB5089561E080E095E00E9471
:10076000830365E784E095E00E94830360E385E00E
:1007700095E00E94830361E081E095E00E9483039D
:1007800083E095E00E949703833139F060E181E0D6
:1007900095E00E9483030E94AC0308951092220307
:1007A0001092210362E081E095E00E94830383E0E0
:1007B00095E00E949703843139F060E181E095E093
:1007C0000E9483030E94CE0308958F929F92AF925E
:1007D000BF92CF92DF92EF92FF920F931F93CF932E
:1007E000DF937C0186E295E00E949703A82EB12C4E
:1007F000BA2CAA2487E295E00E949703A82A88E2EF
:1008000095E00E949703082F10E0102F002789E23F
:1008100095E00E949703082BC80197708A0D9B1DD5
:10082000813D974070F5A114B104C1F06501C0E0AD
:10083000D0E0812C912CCE0DDF1DC401800F911FC3
:10084000977098590E94970388838FEF881A980AA7
:10085000E4018C149D0479F70A0D1B1DF701EA0DC4
:10086000FB1D1082612F88E295E00E948303602FB8
:1008700089E295E00E94830360E481E095E00E94B4
:100880008303DF91CF911F910F91FF90EF90DF9045
:10089000CF90BF90AF909F908F900895ECE7F0E0DD
:1008A000808380818064808380818F7D8083EAE77C
:1008B000F0E0808187608083808180688083808190
:1008C00080648083808186FDFDCF209178008091B7
:1008D000790090E0982F8827820F911D089580E07D
:1008E0000E944E04909326038093250381E00E948A
:1008F0004E04909328038093270308954091270383
:10090000509128032091250330912603821B930BDD
:10091000C3972CF4641B750B6333710534F081E0CD
:1009200090E090932403809323030895CF93DF9363
:1009300080E00E944E04EC0181E00E944E04BC0164
:10094000CE010E947E048091230390912403DF91C5
:10095000CF9108959C0140E050E060E472E48FE0A4
:1009600090E00E94BE05215031093093C5002093CC
:10097000C40088E18093C10086E08093C20008959E
:10098000CF93C82F8A3019F48DE00E94C004E0ECA8
:10099000F0E0908195FFFDCFC093C60080E090E02D
:1009A000CF910895CF93BC01E0ECF0E080818823E3
:1009B000ECF7C091C6008C2F0E94C0048C2FCF9101
:1009C000089562E080E094E00E94830365E784E09C
:1009D00094E00E94830360E385E094E00E94830337
:1009E00061E081E094E00E94830383E094E00E9450
:1009F0009703823239F060E181E094E00E94830342
:100A00000E94E1040895AF92BF92CF92DF92EF92DD
:100A1000FF920F931F93CF93DF93CDB7DEB7289745
:100A20000FB6F894DEBF0FBECDBFD82E7B0180E29B
:100A300094E00E949703082F10E0102F002781E216
:100A400094E00E949703E9EFF0E03197F1F700C0DE
:100A50000000082B0E151F0550F36FEF8CE094E09B
:100A60000E9483036FEF8DE094E00E9483036FEF99
:100A70008EE094E00E9483036FEF8FE094E00E9489
:100A8000830365E780E194E00E94830360E381E1F2
:100A900094E00E94830384E294E00E949703A82ECE
:100AA000B12CBA2CAA2485E294E00E949703A82ACC
:100AB000C50197706D2D905C0E948303C50101965E
:100AC00028E0E3E3F1E0DE01119601900D922A9512
:100AD000E1F78E010F5F1F4F6E01F9E0CF0ED11CC1
:100AE0007C012FEFE21AF20AF80160810E5F1F4FBE
:100AF0009770905C0E9483030C151D0511F0C701CF
:100B0000EFCFF5E0AF0EB11C6B2D84E294E00E94B4
:100B100083036A2D85E294E00E94830360E281E012
:100B200094E00E94830381E094E00E949703811186
:100B3000FACF28960FB6F894DEBF0FBECDBFDF9177
:100B4000CF911F910F91FF90EF90DF90CF90BF90CA
:100B5000AF90089597FB072E16F4009407D077FD09
:100B600009D00E94E00507FC05D03EF490958195E0
:100B70009F4F0895709561957F4F0895A1E21A2EB9
:100B8000AA1BBB1BFD010DC0AA1FBB1FEE1FFF1F31
:100B9000A217B307E407F50720F0A21BB30BE40B81
:100BA000F50B661F771F881F991F1A9469F76095C8
:100BB0007095809590959B01AC01BD01CF01089582
:100BC000AA1BBB1B51E107C0AA1FBB1FA617B70773
:100BD00010F0A61BB70B881F991F5A95A9F780958F
:100BE0009095BC01CD010895A0E0B0E0EAEFF5E0FA
:100BF0000C94BD08FE01359661917191AF01809111
:100C00002B0390912C030E943506E2E00C94D90846
:100C10000F931F93CF93DF93E0912B03F0912C035D
:100C2000238121FF1BC0EC0100E010E0899160915D
:100C30002B0370912C03DB011896ED91FC91199711
:100C4000882331F00995892B89F30FEF1FEFEECF41
:100C50008AE00995892B11F4C80102C08FEF9FEF3C
:100C6000DF91CF911F910F910895ACE0B0E0EBE3DD
:100C7000F6E00C94AD087C016B018A01FC0117823F
:100C80001682838181FFBDC1CE0101964C01F7011F
:100C90009381F60193FD859193FF81916F018823E4
:100CA00009F4ABC1853239F493FD859193FF8191AD
:100CB0006F01853229F4B70190E00E941D08E7CF4B
:100CC000512C312C20E02032A0F48B3269F030F42A
:100CD000803259F0833269F420612CC08D3239F0B2
:100CE000803339F4216026C02260246023C028604C
:100CF00021C027FD27C030ED380F3A3078F426FFA9
:100D000006C0FAE05F9E300D1124532E13C08AE016
:100D1000389E300D1124332E20620CC08E3221F407
:100D200026FD6BC1206406C08C3611F4206802C019
:100D3000883641F4F60193FD859193FF81916F010F
:100D40008111C1CF982F9F7D9554933028F40C5F6B
:100D50001F4FFFE3F9830DC0833631F0833771F005
:100D6000833509F05BC022C0F801808189830E5F62
:100D70001F4F44244394512C540115C03801F2E014
:100D80006F0E711CF801A080B18026FF03C0652D95
:100D900070E002C06FEF7FEFC5012C870E94120840
:100DA0002C0183012C852F77222E17C03801F2E009
:100DB0006F0E711CF801A080B18026FF03C0652D65
:100DC00070E002C06FEF7FEFC5012C870E9407081B
:100DD0002C012C852068222E830123FC1BC0832D2F
:100DE00090E048165906B0F4B70180E290E00E9406
:100DF0001D083A94F4CFF50127FC859127FE8191D7
:100E00005F01B70190E00E941D0831103A94F1E0B3
:100E10004F1A51084114510471F7E5C0843611F09E
:100E2000893639F5F80127FF07C060817181828119
:100E300093810C5F1F4F08C060817181882777FD07
:100E40008095982F0E5F1F4F2F76B22E97FF09C007
:100E500090958095709561957F4F8F4F9F4F20683B
:100E6000B22E2AE030E0A4010E944F08A82EA81854
:100E700044C0853729F42F7EB22E2AE030E025C009
:100E8000F22FF97FBF2E8F36C1F018F4883579F034
:100E9000B4C0803719F0883721F0AFC02F2F206100
:100EA000B22EB4FE0DC08B2D8460B82E09C024FF75
:100EB0000AC09F2F9660B92E06C028E030E005C01A
:100EC00020E130E002C020E132E0F801B7FE07C0C7
:100ED00060817181828193810C5F1F4F06C06081A8
:100EE000718180E090E00E5F1F4FA4010E944F08C7
:100EF000A82EA818FB2DFF77BF2EB6FE0BC02B2DFA
:100F00002E7FA51450F4B4FE0AC0B2FC08C02B2DED
:100F10002E7E05C07A2C2B2D03C07A2C01C0752C97
:100F200024FF0DC0FE01EA0DF11D8081803311F414
:100F3000297E09C022FF06C07394739404C0822FD7
:100F4000867809F0739423FD13C020FF06C05A2C45
:100F5000731418F4530C5718732C731468F4B701F6
:100F600080E290E02C870E941D0873942C85F5CFB9
:100F7000731410F4371801C0312C24FF12C0B701CC
:100F800080E390E02C870E941D082C8522FF17C06B
:100F900021FF03C088E590E002C088E790E0B70138
:100FA0000CC0822F867859F021FD02C080E201C07A
:100FB0008BE227FD8DE2B70190E00E941D08A51489
:100FC00038F4B70180E390E00E941D085A94F7CFEF
:100FD000AA94F401EA0DF11D8081B70190E00E940E
:100FE0001D08A110F5CF332009F451CEB70180E2DE
:100FF00090E00E941D083A94F6CFF7018681978110
:1010000002C08FEF9FEF2C96E2E10C94C908FC011F
:101010000590615070400110D8F7809590958E0F23
:101020009F1F0895FC016150704001900110D8F796
:10103000809590958E0F9F1F08950F931F93CF93C8
:10104000DF93182F092FEB018B8181FD03C08FEFF8
:101050009FEF20C082FF10C04E815F812C813D81B7
:10106000421753077CF4E881F9819F012F5F3F4FBE
:1010700039832883108306C0E885F985812F099577
:10108000892B29F72E813F812F5F3F4F3F832E838E
:10109000812F902FDF91CF911F910F910895FA0129
:1010A000AA27283051F1203181F1E8946F936E7FA7
:1010B0006E5F7F4F8F4F9F4FAF4FB1E03ED0B4E098
:1010C0003CD0670F781F891F9A1FA11D680F791FD9
:1010D0008A1F911DA11D6A0F711D811D911DA11DEA
:1010E00020D009F468943F912AE0269F11243019FA
:1010F000305D3193DEF6CF010895462F4770405D95
:101100004193B3E00FD0C9F7F6CF462F4F70405D43
:101110004A3318F0495D31FD4052419302D0A9F79E
:10112000EACFB4E0A6959795879577956795BA9598
:10113000C9F700976105710508959B01AC010A2E5E
:1011400006945795479537952795BA95C9F7620F35
:10115000731F841F951FA01D08952F923F924F92D9
:101160005F926F927F928F929F92AF92BF92CF9237
:10117000DF92EF92FF920F931F93CF93DF93CDB740
:10118000DEB7CA1BDB0B0FB6F894DEBF0FBECDBFB8
:1011900009942A88398848885F846E847D848C8489
:1011A0009B84AA84B984C884DF80EE80FD800C8192
:1011B0001B81AA81B981CE0FD11D0FB6F894DEBF75
:0C11C0000FBECDBFED010895F894FFCFE5
:1011CC000A000401001636DE58F6FFFF00000A0084
:1011DC00000101C202CB02D402DD02E602F70200DA
:1011EC0003090312030000000300000000C004D236
:1011FC000400000A000000040001004761746577D8
:10120C0061792061647265733A2025642E25642E01
:10121C0025642E25640A0A00536F75726365206875
:10122C00617264776172652061647265733A20251E
:10123C002E32783A252E32783A252E32783A252ECF
:10124C0032783A252E32783A252E32780A0A005313
:10125C0075626E6574206D61736B3A2025642E2562
:10126C00642E25642E25640A0A0049702D6164726F
:10127C0065733A2025642E25642E25642E25640A78
:10128C000A0055445020736F636B65742067657357
:10129C006C6F74656E0055445020736F636B65748E
:1012AC002067656F70656E640054435020736F63E4
:1012BC006B6574206765736C6F74656E0054435076
:1012CC0020736F636B65742067656F70656E640067
:1012DC00544350536572766572206C7569737465EE
:1012EC0072656E005443502076657262696E646953
:1012FC006E67206F7067657A6574000A54435020DE
:10130C0064617461206F6E7476616E67656E3A20ED
:10131C0025730A004765627275696B657220696E88
:10132C0067656C6F676400496E636F727265637496
:10133C00207761636874776F6F7264004C616D70B5
:10134C000041726D65640044697361726D6564007F
:10135C0052657365740054435020636C6F73652041
:10136C0072657175657374206F6E7476616E6765E6
:10137C006E00414C41524D0042524F414443415347
:10138C005400364963315F38393400686B6A304B2E
:10139C00266C3500374D7C49237039360038325174
:1013AC0030313821680058393621244D3335394BCA
:1013BC00313626703532003E2D247D75383551007E
:1013CC0039334332313348310037363921634B30AE
:0C13DC004F00314833353551397D000099
:00000001FF
